{
  "_format": "hh-sol-artifact-1",
  "contractName": "Votacion",
  "sourceName": "contracts/Votacion.sol",
  "abi": [
    {
      "inputs": [
        {
          "internalType": "address",
          "name": "_admin",
          "type": "address"
        },
        {
          "internalType": "string",
          "name": "_nombre",
          "type": "string"
        },
        {
          "internalType": "string",
          "name": "_descripcion",
          "type": "string"
        },
        {
          "internalType": "uint256",
          "name": "_fechaInicio",
          "type": "uint256"
        },
        {
          "internalType": "uint256",
          "name": "_fechaFin",
          "type": "uint256"
        }
      ],
      "stateMutability": "nonpayable",
      "type": "constructor"
    },
    {
      "anonymous": false,
      "inputs": [
        {
          "indexed": true,
          "internalType": "uint256",
          "name": "id",
          "type": "uint256"
        },
        {
          "indexed": false,
          "internalType": "string",
          "name": "nombre",
          "type": "string"
        }
      ],
      "name": "CandidatoAgregado",
      "type": "event"
    },
    {
      "anonymous": false,
      "inputs": [
        {
          "indexed": true,
          "internalType": "uint256",
          "name": "candidatoId",
          "type": "uint256"
        }
      ],
      "name": "VotoEmitido",
      "type": "event"
    },
    {
      "inputs": [],
      "name": "activa",
      "outputs": [
        {
          "internalType": "bool",
          "name": "",
          "type": "bool"
        }
      ],
      "stateMutability": "view",
      "type": "function"
    },
    {
      "inputs": [],
      "name": "administrador",
      "outputs": [
        {
          "internalType": "address",
          "name": "",
          "type": "address"
        }
      ],
      "stateMutability": "view",
      "type": "function"
    },
    {
      "inputs": [
        {
          "internalType": "string",
          "name": "_nombre",
          "type": "string"
        },
        {
          "internalType": "string",
          "name": "_descripcion",
          "type": "string"
        },
        {
          "internalType": "string",
          "name": "_imagenIPFS",
          "type": "string"
        },
        {
          "internalType": "string",
          "name": "_email",
          "type": "string"
        }
      ],
      "name": "agregarCandidato",
      "outputs": [],
      "stateMutability": "nonpayable",
      "type": "function"
    },
    {
      "inputs": [
        {
          "internalType": "address",
          "name": "votante",
          "type": "address"
        }
      ],
      "name": "agregarVotante",
      "outputs": [],
      "stateMutability": "nonpayable",
      "type": "function"
    },
    {
      "inputs": [
        {
          "internalType": "address[]",
          "name": "votantes",
          "type": "address[]"
        }
      ],
      "name": "agregarVotantes",
      "outputs": [],
      "stateMutability": "nonpayable",
      "type": "function"
    },
    {
      "inputs": [
        {
          "internalType": "uint256",
          "name": "",
          "type": "uint256"
        }
      ],
      "name": "candidatos",
      "outputs": [
        {
          "internalType": "string",
          "name": "nombre",
          "type": "string"
        },
        {
          "internalType": "string",
          "name": "descripcion",
          "type": "string"
        },
        {
          "internalType": "string",
          "name": "imagenIPFS",
          "type": "string"
        },
        {
          "internalType": "uint256",
          "name": "votos",
          "type": "uint256"
        },
        {
          "internalType": "string",
          "name": "email",
          "type": "string"
        }
      ],
      "stateMutability": "view",
      "type": "function"
    },
    {
      "inputs": [],
      "name": "descripcionVotacion",
      "outputs": [
        {
          "internalType": "string",
          "name": "",
          "type": "string"
        }
      ],
      "stateMutability": "view",
      "type": "function"
    },
    {
      "inputs": [
        {
          "internalType": "address",
          "name": "addr",
          "type": "address"
        }
      ],
      "name": "estaEnWhitelist",
      "outputs": [
        {
          "internalType": "bool",
          "name": "",
          "type": "bool"
        }
      ],
      "stateMutability": "view",
      "type": "function"
    },
    {
      "inputs": [],
      "name": "fechaFin",
      "outputs": [
        {
          "internalType": "uint256",
          "name": "",
          "type": "uint256"
        }
      ],
      "stateMutability": "view",
      "type": "function"
    },
    {
      "inputs": [],
      "name": "fechaInicio",
      "outputs": [
        {
          "internalType": "uint256",
          "name": "",
          "type": "uint256"
        }
      ],
      "stateMutability": "view",
      "type": "function"
    },
    {
      "inputs": [],
      "name": "finalizarVotacion",
      "outputs": [],
      "stateMutability": "nonpayable",
      "type": "function"
    },
    {
      "inputs": [
        {
          "internalType": "bytes32",
          "name": "",
          "type": "bytes32"
        }
      ],
      "name": "haVotado",
      "outputs": [
        {
          "internalType": "bool",
          "name": "",
          "type": "bool"
        }
      ],
      "stateMutability": "view",
      "type": "function"
    },
    {
      "inputs": [],
      "name": "nombreVotacion",
      "outputs": [
        {
          "internalType": "string",
          "name": "",
          "type": "string"
        }
      ],
      "stateMutability": "view",
      "type": "function"
    },
    {
      "inputs": [
        {
          "internalType": "uint256",
          "name": "id",
          "type": "uint256"
        }
      ],
      "name": "obtenerCandidato",
      "outputs": [
        {
          "internalType": "string",
          "name": "nombre",
          "type": "string"
        },
        {
          "internalType": "string",
          "name": "descripcion",
          "type": "string"
        },
        {
          "internalType": "string",
          "name": "imagenIPFS",
          "type": "string"
        },
        {
          "internalType": "uint256",
          "name": "votos",
          "type": "uint256"
        },
        {
          "internalType": "string",
          "name": "email",
          "type": "string"
        }
      ],
      "stateMutability": "view",
      "type": "function"
    },
    {
      "inputs": [],
      "name": "obtenerGanador",
      "outputs": [
        {
          "internalType": "uint256",
          "name": "idGanador",
          "type": "uint256"
        }
      ],
      "stateMutability": "view",
      "type": "function"
    },
    {
      "inputs": [],
      "name": "obtenerGanadorPublico",
      "outputs": [
        {
          "internalType": "string",
          "name": "nombre",
          "type": "string"
        },
        {
          "internalType": "string",
          "name": "descripcion",
          "type": "string"
        },
        {
          "internalType": "string",
          "name": "imagenIPFS",
          "type": "string"
        },
        {
          "internalType": "uint256",
          "name": "votos",
          "type": "uint256"
        },
        {
          "internalType": "string",
          "name": "email",
          "type": "string"
        }
      ],
      "stateMutability": "view",
      "type": "function"
    },
    {
      "inputs": [],
      "name": "totalCandidatos",
      "outputs": [
        {
          "internalType": "uint256",
          "name": "",
          "type": "uint256"
        }
      ],
      "stateMutability": "view",
      "type": "function"
    },
    {
      "inputs": [],
      "name": "totalVotantes",
      "outputs": [
        {
          "internalType": "uint256",
          "name": "",
          "type": "uint256"
        }
      ],
      "stateMutability": "view",
      "type": "function"
    },
    {
      "inputs": [
        {
          "internalType": "uint256",
          "name": "idCandidato",
          "type": "uint256"
        }
      ],
      "name": "votar",
      "outputs": [],
      "stateMutability": "nonpayable",
      "type": "function"
    },
    {
      "inputs": [
        {
          "internalType": "address",
          "name": "",
          "type": "address"
        }
      ],
      "name": "whitelist",
      "outputs": [
        {
          "internalType": "bool",
          "name": "",
          "type": "bool"
        }
      ],
      "stateMutability": "view",
      "type": "function"
    }
  ],
  "bytecode": "0x608060405234801561001057600080fd5b5060405161303f38038061303f833981810160405281019061003291906102ce565b846000806101000a81548173ffffffffffffffffffffffffffffffffffffffff021916908373ffffffffffffffffffffffffffffffffffffffff16021790555083600190816100819190610598565b5082600290816100919190610598565b5081600481905550806005819055506001600360006101000a81548160ff021916908315150217905550505050505061066a565b6000604051905090565b600080fd5b600080fd5b600073ffffffffffffffffffffffffffffffffffffffff82169050919050565b6000610104826100d9565b9050919050565b610114816100f9565b811461011f57600080fd5b50565b6000815190506101318161010b565b92915050565b600080fd5b600080fd5b6000601f19601f8301169050919050565b7f4e487b7100000000000000000000000000000000000000000000000000000000600052604160045260246000fd5b61018a82610141565b810181811067ffffffffffffffff821117156101a9576101a8610152565b5b80604052505050565b60006101bc6100c5565b90506101c88282610181565b919050565b600067ffffffffffffffff8211156101e8576101e7610152565b5b6101f182610141565b9050602081019050919050565b60005b8381101561021c578082015181840152602081019050610201565b60008484015250505050565b600061023b610236846101cd565b6101b2565b9050828152602081018484840111156102575761025661013c565b5b6102628482856101fe565b509392505050565b600082601f83011261027f5761027e610137565b5b815161028f848260208601610228565b91505092915050565b6000819050919050565b6102ab81610298565b81146102b657600080fd5b50565b6000815190506102c8816102a2565b92915050565b600080600080600060a086880312156102ea576102e96100cf565b5b60006102f888828901610122565b955050602086015167ffffffffffffffff811115610319576103186100d4565b5b6103258882890161026a565b945050604086015167ffffffffffffffff811115610346576103456100d4565b5b6103528882890161026a565b9350506060610363888289016102b9565b9250506080610374888289016102b9565b9150509295509295909350565b600081519050919050565b7f4e487b7100000000000000000000000000000000000000000000000000000000600052602260045260246000fd5b600060028204905060018216806103d357607f821691505b6020821081036103e6576103e561038c565b5b50919050565b60008190508160005260206000209050919050565b60006020601f8301049050919050565b600082821b905092915050565b60006008830261044e7fffffffffffffffffffffffffffffffffffffffffffffffffffffffffffffffff82610411565b6104588683610411565b95508019841693508086168417925050509392505050565b6000819050919050565b600061049561049061048b84610298565b610470565b610298565b9050919050565b6000819050919050565b6104af8361047a565b6104c36104bb8261049c565b84845461041e565b825550505050565b600090565b6104d86104cb565b6104e38184846104a6565b505050565b5b81811015610507576104fc6000826104d0565b6001810190506104e9565b5050565b601f82111561054c5761051d816103ec565b61052684610401565b81016020851015610535578190505b61054961054185610401565b8301826104e8565b50505b505050565b600082821c905092915050565b600061056f60001984600802610551565b1980831691505092915050565b6000610588838361055e565b9150826002028217905092915050565b6105a182610381565b67ffffffffffffffff8111156105ba576105b9610152565b5b6105c482546103bb565b6105cf82828561050b565b600060209050601f83116001811461060257600084156105f0578287015190505b6105fa858261057c565b865550610662565b601f198416610610866103ec565b60005b8281101561063857848901518255600182019150602085019450602081019050610613565b868310156106555784890151610651601f89168261055e565b8355505b6001600288020188555050505b505050505050565b6129c6806106796000396000f3fe608060405234801561001057600080fd5b506004361061012c5760003560e01c80637062b97d116100ad578063bc83abde11610071578063bc83abde14610341578063c270cb521461035f578063d486cd761461037b578063e3b1000a14610399578063fc373179146103b55761012c565b80637062b97d14610271578063749acfdc1461028f578063801b33d5146102bf5780638f023f85146102dd5780639b19251a146103115761012c565b80632975dcc2116100f45780632975dcc2146101df5780632c5e54711461020f5780635728f4e81461022d578063579073291461024957806367095dd8146102675761012c565b806302d26a98146101315780630ae0b30114610165578063189f9823146101875780631dc3e30f146101a557806321606831146101c3575b600080fd5b61014b60048036038101906101469190611a1e565b6103d3565b60405161015c959493929190611aea565b60405180910390f35b61016d6106d8565b60405161017e959493929190611aea565b60405180910390f35b61018f610a9a565b60405161019c9190611b59565b60405180910390f35b6101ad610aa0565b6040516101ba9190611b74565b60405180910390f35b6101dd60048036038101906101d89190611a1e565b610b2e565b005b6101f960048036038101906101f49190611bf4565b610e8e565b6040516102069190611c3c565b60405180910390f35b610217610ee4565b6040516102249190611c3c565b60405180910390f35b61024760048036038101906102429190611d8c565b610ef7565b005b6102516110c3565b60405161025e9190611b74565b60405180910390f35b61026f611151565b005b6102796112c9565b6040516102869190611e72565b60405180910390f35b6102a960048036038101906102a49190611ec3565b6112ed565b6040516102b69190611c3c565b60405180910390f35b6102c761130d565b6040516102d49190611b59565b60405180910390f35b6102f760048036038101906102f29190611a1e565b6114be565b604051610308959493929190611aea565b60405180910390f35b61032b60048036038101906103269190611bf4565b611714565b6040516103389190611c3c565b60405180910390f35b610349611734565b6040516103569190611b59565b60405180910390f35b61037960048036038101906103749190611fb8565b61173a565b005b61038361189b565b6040516103909190611b59565b60405180910390f35b6103b360048036038101906103ae9190611bf4565b6118a1565b005b6103bd6119ce565b6040516103ca9190611b59565b60405180910390f35b6060806060600060606008548610610420576040517f08c379a00000000000000000000000000000000000000000000000000000000081526004016104179061204d565b60405180910390fd5b6000600760008881526020019081526020016000206040518060a00160405290816000820180546104509061209c565b80601f016020809104026020016040519081016040528092919081815260200182805461047c9061209c565b80156104c95780601f1061049e576101008083540402835291602001916104c9565b820191906000526020600020905b8154815290600101906020018083116104ac57829003601f168201915b505050505081526020016001820180546104e29061209c565b80601f016020809104026020016040519081016040528092919081815260200182805461050e9061209c565b801561055b5780601f106105305761010080835404028352916020019161055b565b820191906000526020600020905b81548152906001019060200180831161053e57829003601f168201915b505050505081526020016002820180546105749061209c565b80601f01602080910402602001604051908101604052809291908181526020018280546105a09061209c565b80156105ed5780601f106105c2576101008083540402835291602001916105ed565b820191906000526020600020905b8154815290600101906020018083116105d057829003601f168201915b50505050508152602001600382015481526020016004820180546106109061209c565b80601f016020809104026020016040519081016040528092919081815260200182805461063c9061209c565b80156106895780601f1061065e57610100808354040283529160200191610689565b820191906000526020600020905b81548152906001019060200180831161066c57829003601f168201915b5050505050815250509050600060055442116106a65760006106ac565b81606001515b905081600001518260200151836040015183856080015196509650965096509650505091939590929450565b606080606060006060600554421015806106ff5750600360009054906101000a900460ff16155b61073e576040517f08c379a00000000000000000000000000000000000000000000000000000000081526004016107359061213f565b60405180910390fd5b600060085411610783576040517f08c379a000000000000000000000000000000000000000000000000000000000815260040161077a906121ab565b60405180910390fd5b600080600760008081526020019081526020016000206003015490506000600190505b6008548110156107f85781600760008381526020019081526020016000206003015411156107eb57600760008281526020019081526020016000206003015491508092505b80806001019150506107a6565b506000600760008481526020019081526020016000206040518060a00160405290816000820180546108299061209c565b80601f01602080910402602001604051908101604052809291908181526020018280546108559061209c565b80156108a25780601f10610877576101008083540402835291602001916108a2565b820191906000526020600020905b81548152906001019060200180831161088557829003601f168201915b505050505081526020016001820180546108bb9061209c565b80601f01602080910402602001604051908101604052809291908181526020018280546108e79061209c565b80156109345780601f1061090957610100808354040283529160200191610934565b820191906000526020600020905b81548152906001019060200180831161091757829003601f168201915b5050505050815260200160028201805461094d9061209c565b80601f01602080910402602001604051908101604052809291908181526020018280546109799061209c565b80156109c65780601f1061099b576101008083540402835291602001916109c6565b820191906000526020600020905b8154815290600101906020018083116109a957829003601f168201915b50505050508152602001600382015481526020016004820180546109e99061209c565b80601f0160208091040260200160405190810160405280929190818152602001828054610a159061209c565b8015610a625780601f10610a3757610100808354040283529160200191610a62565b820191906000526020600020905b815481529060010190602001808311610a4557829003601f168201915b505050505081525050905080600001518160200151826040015183606001518460800151975097509750975097505050509091929394565b60055481565b60018054610aad9061209c565b80601f0160208091040260200160405190810160405280929190818152602001828054610ad99061209c565b8015610b265780601f10610afb57610100808354040283529160200191610b26565b820191906000526020600020905b815481529060010190602001808311610b0957829003601f168201915b505050505081565b600360009054906101000a900460ff16610b7d576040517f08c379a0000000000000000000000000000000000000000000000000000000008152600401610b7490612217565b60405180910390fd5b600454421015610bc2576040517f08c379a0000000000000000000000000000000000000000000000000000000008152600401610bb990612283565b60405180910390fd5b600554421115610c07576040517f08c379a0000000000000000000000000000000000000000000000000000000008152600401610bfe906122ef565b60405180910390fd5b600454421015610c4c576040517f08c379a0000000000000000000000000000000000000000000000000000000008152600401610c4390612283565b60405180910390fd5b600554421115610c91576040517f08c379a0000000000000000000000000000000000000000000000000000000008152600401610c88906122ef565b60405180910390fd5b600660003373ffffffffffffffffffffffffffffffffffffffff1673ffffffffffffffffffffffffffffffffffffffff16815260200190815260200160002060009054906101000a900460ff16610d1d576040517f08c379a0000000000000000000000000000000000000000000000000000000008152600401610d1490612381565b60405180910390fd5b600033604051602001610d3091906123e9565b6040516020818303038152906040528051906020012090506009600082815260200190815260200160002060009054906101000a900460ff1615610da9576040517f08c379a0000000000000000000000000000000000000000000000000000000008152600401610da090612476565b60405180910390fd5b6008548210610ded576040517f08c379a0000000000000000000000000000000000000000000000000000000008152600401610de4906124e2565b60405180910390fd5b60016009600083815260200190815260200160002060006101000a81548160ff021916908315150217905550600760008381526020019081526020016000206003016000815480929190610e4090612531565b9190505550600a6000815480929190610e5890612531565b9190505550817fa5c26d3aaeff46368cf3b4b591ecc1c521db45fa154836e4f10914b2564259a360405160405180910390a25050565b6000600660008373ffffffffffffffffffffffffffffffffffffffff1673ffffffffffffffffffffffffffffffffffffffff16815260200190815260200160002060009054906101000a900460ff169050919050565b600360009054906101000a900460ff1681565b60008054906101000a900473ffffffffffffffffffffffffffffffffffffffff1673ffffffffffffffffffffffffffffffffffffffff163373ffffffffffffffffffffffffffffffffffffffff1614610f85576040517f08c379a0000000000000000000000000000000000000000000000000000000008152600401610f7c906125eb565b60405180910390fd5b6004544210610fc9576040517f08c379a0000000000000000000000000000000000000000000000000000000008152600401610fc090612657565b60405180910390fd5b6040518060a001604052808581526020018481526020018381526020016000815260200182815250600760006008548152602001908152602001600020600082015181600001908161101b9190612823565b5060208201518160010190816110319190612823565b5060408201518160020190816110479190612823565b506060820151816003015560808201518160040190816110679190612823565b509050506008547f757218a87bdabca3fb8b024a9fae5469575e2a35f437d8cfd491962bb854ab1c8560405161109d9190611b74565b60405180910390a2600860008154809291906110b890612531565b919050555050505050565b600280546110d09061209c565b80601f01602080910402602001604051908101604052809291908181526020018280546110fc9061209c565b80156111495780601f1061111e57610100808354040283529160200191611149565b820191906000526020600020905b81548152906001019060200180831161112c57829003601f168201915b505050505081565b60008054906101000a900473ffffffffffffffffffffffffffffffffffffffff1673ffffffffffffffffffffffffffffffffffffffff163373ffffffffffffffffffffffffffffffffffffffff16146111df576040517f08c379a00000000000000000000000000000000000000000000000000000000081526004016111d6906125eb565b60405180910390fd5b600360009054906101000a900460ff1661122e576040517f08c379a000000000000000000000000000000000000000000000000000000000815260040161122590612941565b60405180910390fd5b6004544210801561124157506000600a54145b15611266576000600360006101000a81548160ff0219169083151502179055506112c7565b6005544210156112ab576040517f08c379a00000000000000000000000000000000000000000000000000000000081526004016112a29061213f565b60405180910390fd5b6000600360006101000a81548160ff0219169083151502179055505b565b60008054906101000a900473ffffffffffffffffffffffffffffffffffffffff1681565b60096020528060005260406000206000915054906101000a900460ff1681565b60008060009054906101000a900473ffffffffffffffffffffffffffffffffffffffff1673ffffffffffffffffffffffffffffffffffffffff163373ffffffffffffffffffffffffffffffffffffffff161461139e576040517f08c379a0000000000000000000000000000000000000000000000000000000008152600401611395906125eb565b60405180910390fd5b600554421015806113bc5750600360009054906101000a900460ff16155b6113fb576040517f08c379a00000000000000000000000000000000000000000000000000000000081526004016113f29061213f565b60405180910390fd5b600060085411611440576040517f08c379a0000000000000000000000000000000000000000000000000000000008152600401611437906121ab565b60405180910390fd5b600060076000808152602001908152602001600020600301549050600080600190505b6008548110156114b55782600760008381526020019081526020016000206003015411156114a857600760008281526020019081526020016000206003015492508091505b8080600101915050611463565b50809250505090565b60076020528060005260406000206000915090508060000180546114e19061209c565b80601f016020809104026020016040519081016040528092919081815260200182805461150d9061209c565b801561155a5780601f1061152f5761010080835404028352916020019161155a565b820191906000526020600020905b81548152906001019060200180831161153d57829003601f168201915b50505050509080600101805461156f9061209c565b80601f016020809104026020016040519081016040528092919081815260200182805461159b9061209c565b80156115e85780601f106115bd576101008083540402835291602001916115e8565b820191906000526020600020905b8154815290600101906020018083116115cb57829003601f168201915b5050505050908060020180546115fd9061209c565b80601f01602080910402602001604051908101604052809291908181526020018280546116299061209c565b80156116765780601f1061164b57610100808354040283529160200191611676565b820191906000526020600020905b81548152906001019060200180831161165957829003601f168201915b5050505050908060030154908060040180546116919061209c565b80601f01602080910402602001604051908101604052809291908181526020018280546116bd9061209c565b801561170a5780601f106116df5761010080835404028352916020019161170a565b820191906000526020600020905b8154815290600101906020018083116116ed57829003601f168201915b5050505050905085565b60066020528060005260406000206000915054906101000a900460ff1681565b60085481565b60008054906101000a900473ffffffffffffffffffffffffffffffffffffffff1673ffffffffffffffffffffffffffffffffffffffff163373ffffffffffffffffffffffffffffffffffffffff16146117c8576040517f08c379a00000000000000000000000000000000000000000000000000000000081526004016117bf906125eb565b60405180910390fd5b600454421061180c576040517f08c379a000000000000000000000000000000000000000000000000000000000815260040161180390612657565b60405180910390fd5b60005b81518110156118975760016006600084848151811061183157611830612961565b5b602002602001015173ffffffffffffffffffffffffffffffffffffffff1673ffffffffffffffffffffffffffffffffffffffff16815260200190815260200160002060006101000a81548160ff021916908315150217905550808060010191505061180f565b5050565b600a5481565b60008054906101000a900473ffffffffffffffffffffffffffffffffffffffff1673ffffffffffffffffffffffffffffffffffffffff163373ffffffffffffffffffffffffffffffffffffffff161461192f576040517f08c379a0000000000000000000000000000000000000000000000000000000008152600401611926906125eb565b60405180910390fd5b6004544210611973576040517f08c379a000000000000000000000000000000000000000000000000000000000815260040161196a90612657565b60405180910390fd5b6001600660008373ffffffffffffffffffffffffffffffffffffffff1673ffffffffffffffffffffffffffffffffffffffff16815260200190815260200160002060006101000a81548160ff02191690831515021790555050565b60045481565b6000604051905090565b600080fd5b600080fd5b6000819050919050565b6119fb816119e8565b8114611a0657600080fd5b50565b600081359050611a18816119f2565b92915050565b600060208284031215611a3457611a336119de565b5b6000611a4284828501611a09565b91505092915050565b600081519050919050565b600082825260208201905092915050565b60005b83811015611a85578082015181840152602081019050611a6a565b60008484015250505050565b6000601f19601f8301169050919050565b6000611aad82611a4b565b611ab78185611a56565b9350611ac7818560208601611a67565b611ad081611a91565b840191505092915050565b611ae4816119e8565b82525050565b600060a0820190508181036000830152611b048188611aa2565b90508181036020830152611b188187611aa2565b90508181036040830152611b2c8186611aa2565b9050611b3b6060830185611adb565b8181036080830152611b4d8184611aa2565b90509695505050505050565b6000602082019050611b6e6000830184611adb565b92915050565b60006020820190508181036000830152611b8e8184611aa2565b905092915050565b600073ffffffffffffffffffffffffffffffffffffffff82169050919050565b6000611bc182611b96565b9050919050565b611bd181611bb6565b8114611bdc57600080fd5b50565b600081359050611bee81611bc8565b92915050565b600060208284031215611c0a57611c096119de565b5b6000611c1884828501611bdf565b91505092915050565b60008115159050919050565b611c3681611c21565b82525050565b6000602082019050611c516000830184611c2d565b92915050565b600080fd5b600080fd5b7f4e487b7100000000000000000000000000000000000000000000000000000000600052604160045260246000fd5b611c9982611a91565b810181811067ffffffffffffffff82111715611cb857611cb7611c61565b5b80604052505050565b6000611ccb6119d4565b9050611cd78282611c90565b919050565b600067ffffffffffffffff821115611cf757611cf6611c61565b5b611d0082611a91565b9050602081019050919050565b82818337600083830152505050565b6000611d2f611d2a84611cdc565b611cc1565b905082815260208101848484011115611d4b57611d4a611c5c565b5b611d56848285611d0d565b509392505050565b600082601f830112611d7357611d72611c57565b5b8135611d83848260208601611d1c565b91505092915050565b60008060008060808587031215611da657611da56119de565b5b600085013567ffffffffffffffff811115611dc457611dc36119e3565b5b611dd087828801611d5e565b945050602085013567ffffffffffffffff811115611df157611df06119e3565b5b611dfd87828801611d5e565b935050604085013567ffffffffffffffff811115611e1e57611e1d6119e3565b5b611e2a87828801611d5e565b925050606085013567ffffffffffffffff811115611e4b57611e4a6119e3565b5b611e5787828801611d5e565b91505092959194509250565b611e6c81611bb6565b82525050565b6000602082019050611e876000830184611e63565b92915050565b6000819050919050565b611ea081611e8d565b8114611eab57600080fd5b50565b600081359050611ebd81611e97565b92915050565b600060208284031215611ed957611ed86119de565b5b6000611ee784828501611eae565b91505092915050565b600067ffffffffffffffff821115611f0b57611f0a611c61565b5b602082029050602081019050919050565b600080fd5b6000611f34611f2f84611ef0565b611cc1565b90508083825260208201905060208402830185811115611f5757611f56611f1c565b5b835b81811015611f805780611f6c8882611bdf565b845260208401935050602081019050611f59565b5050509392505050565b600082601f830112611f9f57611f9e611c57565b5b8135611faf848260208601611f21565b91505092915050565b600060208284031215611fce57611fcd6119de565b5b600082013567ffffffffffffffff811115611fec57611feb6119e3565b5b611ff884828501611f8a565b91505092915050565b7f49442064652063616e64696461746f206e6f2076616c69646f00000000000000600082015250565b6000612037601983611a56565b915061204282612001565b602082019050919050565b600060208201905081810360008301526120668161202a565b9050919050565b7f4e487b7100000000000000000000000000000000000000000000000000000000600052602260045260246000fd5b600060028204905060018216806120b457607f821691505b6020821081036120c7576120c661206d565b5b50919050565b7f4c6120766f746163696f6e2061756e206e6f2068612066696e616c697a61646f60008201527f2e00000000000000000000000000000000000000000000000000000000000000602082015250565b6000612129602183611a56565b9150612134826120cd565b604082019050919050565b600060208201905081810360008301526121588161211c565b9050919050565b7f4e6f206861792063616e64696461746f73207265676973747261646f732e0000600082015250565b6000612195601e83611a56565b91506121a08261215f565b602082019050919050565b600060208201905081810360008301526121c481612188565b9050919050565b7f4c6120766f746163696f6e206e6f2065737461206163746976612e0000000000600082015250565b6000612201601b83611a56565b915061220c826121cb565b602082019050919050565b60006020820190508181036000830152612230816121f4565b9050919050565b7f4c6120766f746163696f6e206e6f20686120636f6d656e7a61646f2e00000000600082015250565b600061226d601c83611a56565b915061227882612237565b602082019050919050565b6000602082019050818103600083015261229c81612260565b9050919050565b7f4c6120766f746163696f6e2068612066696e616c697a61646f2e000000000000600082015250565b60006122d9601a83611a56565b91506122e4826122a3565b602082019050919050565b60006020820190508181036000830152612308816122cc565b9050919050565b7f547520646972656363696f6e206e6f2065737461206175746f72697a6164612060008201527f7061726120766f7461722e000000000000000000000000000000000000000000602082015250565b600061236b602b83611a56565b91506123768261230f565b604082019050919050565b6000602082019050818103600083015261239a8161235e565b9050919050565b60008160601b9050919050565b60006123b9826123a1565b9050919050565b60006123cb826123ae565b9050919050565b6123e36123de82611bb6565b6123c0565b82525050565b60006123f582846123d2565b60148201915081905092915050565b7f4573746520766f74616e746520796120686120656d697469646f20737520766f60008201527f746f2e0000000000000000000000000000000000000000000000000000000000602082015250565b6000612460602383611a56565b915061246b82612404565b604082019050919050565b6000602082019050818103600083015261248f81612453565b9050919050565b7f43616e64696461746f20696e76616c69646f2e00000000000000000000000000600082015250565b60006124cc601383611a56565b91506124d782612496565b602082019050919050565b600060208201905081810360008301526124fb816124bf565b9050919050565b7f4e487b7100000000000000000000000000000000000000000000000000000000600052601160045260246000fd5b600061253c826119e8565b91507fffffffffffffffffffffffffffffffffffffffffffffffffffffffffffffffff820361256e5761256d612502565b5b600182019050919050565b7f536f6c6f20656c2061646d696e6973747261646f7220707565646520656a656360008201527f75746172206573746120616363696f6e2e000000000000000000000000000000602082015250565b60006125d5603183611a56565b91506125e082612579565b604082019050919050565b60006020820190508181036000830152612604816125c8565b9050919050565b7f4c6120766f746163696f6e20796120686120636f6d656e7a61646f2e00000000600082015250565b6000612641601c83611a56565b915061264c8261260b565b602082019050919050565b6000602082019050818103600083015261267081612634565b9050919050565b60008190508160005260206000209050919050565b60006020601f8301049050919050565b600082821b905092915050565b6000600883026126d97fffffffffffffffffffffffffffffffffffffffffffffffffffffffffffffffff8261269c565b6126e3868361269c565b95508019841693508086168417925050509392505050565b6000819050919050565b600061272061271b612716846119e8565b6126fb565b6119e8565b9050919050565b6000819050919050565b61273a83612705565b61274e61274682612727565b8484546126a9565b825550505050565b600090565b612763612756565b61276e818484612731565b505050565b5b818110156127925761278760008261275b565b600181019050612774565b5050565b601f8211156127d7576127a881612677565b6127b18461268c565b810160208510156127c0578190505b6127d46127cc8561268c565b830182612773565b50505b505050565b600082821c905092915050565b60006127fa600019846008026127dc565b1980831691505092915050565b600061281383836127e9565b9150826002028217905092915050565b61282c82611a4b565b67ffffffffffffffff81111561284557612844611c61565b5b61284f825461209c565b61285a828285612796565b600060209050601f83116001811461288d576000841561287b578287015190505b6128858582612807565b8655506128ed565b601f19841661289b86612677565b60005b828110156128c35784890151825560018201915060208501945060208101905061289e565b868310156128e057848901516128dc601f8916826127e9565b8355505b6001600288020188555050505b505050505050565b7f4c6120766f746163696f6e20796120657374612066696e616c697a6164612e00600082015250565b600061292b601f83611a56565b9150612936826128f5565b602082019050919050565b6000602082019050818103600083015261295a8161291e565b9050919050565b7f4e487b7100000000000000000000000000000000000000000000000000000000600052603260045260246000fdfea26469706673582212204c8dc83214adca311441d7e7af1ae83c8d7b9baf13f1e38879c54b9776f1973864736f6c634300081c0033",
  "linkReferences": {},
  "deployedLinkReferences": {}
}